S01700004763634170706C69636174696F6E312E737265635B
S11300000C9434000C94DF000C940B010C94460007
S11300100C9446000C9446000C9446000C94460044
S11300200C9446000C9446000C9446000C94370142
S11300300C9446000C9446000C9446000C94460024
S11300400C9446000C9446000C9446000C94460014
S11300500C9446000C9446000C9446000C94460004
S11300600C9446000C94460011241FBECFEFD8E038
S1130070DEBFCDBF21E0A0E0B1E001C01D92AB30F6
S1130080B207E1F70E94A4000C94DA020C94000079
S1130090ECE7F0E080818064808380818F778083C7
S11300A0EAE7F0E0808180688083808187608083D4
S11300B00895ECE7F0E09081907F8F70892B808326
S11300C0EAE7F0E0808180648083808186FDFDCF53
S11300D080917800909179000895E9E6F0E08081BC
S11300E0856080838DB383608DBB08958AB18364FA
S11300F08AB938988AB1837F8AB9229A2A9A08954C
S1130100589A599887BD0895909108019817B9F0A5
S1130110861759F02091090130910A012F5F3F4F52
S113012030930A01209309010AC0209109013091FA
S11301300A012150310930930A0120930901809367
S113014008016093070108950E9476000E94480008
S11301500E948D010E946D000E9497010E948001FF
S1130160789480E00E9459009093060180930501E1
S11301702091030130910401AC01421B530B9A01FD
S113018022F422273327241B350B2530310584F034
S11301909695879596958795809302010E94800095
S11301A080910501909106019093040180930301CD
S11301B08FE19EE40197F1F700C00000D2CF1F92B7
S11301C00F920FB60F9211242F933F934F935F9387
S11301D06F937F938F939F93AF93BF93EF93FF930B
S11301E089B169B163FB662760F982FB882780F9CE
S11301F00E948400FF91EF91BF91AF919F918F91E5
S11302007F916F915F914F913F912F910F900FBE0E
S11302100F901F9018951F920F920FB60F921124F2
S11302202F933F934F935F936F937F938F939F93FA
S1130230AF93BF93EF93FF9389B169B163FB6627D3
S113024060F982FB882780F90E948400FF91EF9176
S1130250BF91AF919F918F917F916F915F914F91DA
S11302603F912F910F900FBE0F901F9018951F92E2
S11302700F920FB60F9211242F933F934F935F93D6
S11302806F937F938F939F93AF93BF93EF93FF935A
S11302908091090190910A012CE3289FB001299FC4
S11302A0700D1124072E000C880B990B0E944E022E
S11302B020E030E04CE153E40E94AB010E941D02B7
S11302C0872F609300017093010110920A0110922C
S11302D009010E948601809100010E948601FF911C
S11302E0EF91BF91AF919F918F917F916F915F91AA
S11302F04F913F912F910F900FBE0F901F90189523
S11303008CE284B92A9A81E58CBD08952A988EBD21
S11303100DB407FEFDCF2A9A0895569A84B58368D2
S113032084BD85B5846085BD16BC17BC0895E1E81D
S1130330F0E080818860808384E89EE19093890066
S113034080938800808185608083EFE6F0E080817F
S11303508260808308950E94BF010C94A0020E94D1
S1130360990258F00E94920240F029F45F3F29F06C
S11303700C94890251110C94D4020C948F020E94A3
S1130380B10268F39923B1F3552391F3951B550BEF
S1130390BB27AA2762177307840738F09F5F5F4F54
S11303A0220F331F441FAA1FA9F335D00E2E3AF093
S11303B0E0E832D091505040E695001CCAF72BD0AB
S11303C0FE2F29D0660F771F881FBB1F26173707FC
S11303D04807AB07B0E809F0BB0B802DBF01FF272E
S11303E093585F4F3AF09E3F510578F00C94890280
S11303F00C94D4025F3FE4F3983ED4F3869577954A
S11304006795B795F7959F5FC9F7880F911D9695E6
S1130410879597F90895E1E0660F771F881FBB1F42
S1130420621773078407BA0720F0621B730B840BEF
S1130430BA0BEE1F88F7E09508950E94B90288F080
S11304409F5798F0B92F9927B751B0F0E1F0660F94
S1130450771F881F991F1AF0BA95C9F714C0B130D5
S113046091F00E94D302B1E008950C94D302672F57
S1130470782F8827B85F39F0B93FCCF38695779504
S11304806795B395D9F73EF49095809570956195ED
S11304907F4F8F4F9F4F0895E89409C097FB3EF418
S11304A090958095709561957F4F8F4F9F4F9923BD
S11304B0A9F0F92F96E9BB279395F695879577953B
S11304C06795B795F111F8CFFAF4BB0F11F460FFFB
S11304D01BC06F5F7F4F8F4F9F4F16C0882311F053
S11304E096E911C0772321F09EE8872F762F05C067
S11304F0662371F096E8862F70E060E02AF09A9502
S1130500660F771F881FDAF7880F9695879597F9F6
S1130510089597F99F6780E870E060E008959FEF81
S113052080EC089500240A94161617061806090686
S1130530089500240A941216130614060506089555
S1130540092E0394000C11F4882352F0BB0F40F4DD
S1130550BF2B11F460FF04C06F5F7F4F8F4F9F4F1D
S1130560089557FD9058440F551F59F05F3F71F09F
S11305704795880F97FB991F61F09F3F79F0879506
S11305800895121613061406551FF2CF4695F1DF8F
S113059008C0161617061806991FF1CF869571051F
S11305A0610508940895E894BB2766277727CB0153
S10B05B097F90895F894FFCFB8
S9030000FC
