S01700004763634170706C69636174696F6E312E737265635B
S11300000C9434000C94DF000C940B010C94460007
S11300100C9446000C9446000C9446000C94460044
S11300200C9446000C9446000C9446000C94370142
S11300300C9446000C9446000C9446000C94460024
S11300400C9446000C9446000C9446000C94460014
S11300500C9446000C9446000C9446000C94460004
S11300600C9446000C94460011241FBECFEFD8E038
S1130070DEBFCDBF21E0A0E0B1E001C01D92AB30F6
S1130080B207E1F70E94A4000C94C9010C9400008B
S1130090ECE7F0E080818064808380818F778083C7
S11300A0EAE7F0E0808180688083808187608083D4
S11300B00895ECE7F0E09081907F8F70892B808326
S11300C0EAE7F0E0808180648083808186FDFDCF53
S11300D080917800909179000895E9E6F0E08081BC
S11300E0856080838DB383608DBB08958AB18364FA
S11300F08AB938988AB1837F8AB9229A2A9A08954C
S1130100589A599887BD0895909108019817B9F0A5
S1130110861759F02091090130910A012F5F3F4F52
S113012030930A01209309010AC0209109013091FA
S11301300A012150310930930A0120930901809367
S113014008016093070108950E9476000E94480008
S11301500E9483010E946D000E948D010E9476011D
S1130160789480E00E9459009093060180930501E1
S11301702091030130910401AC01421B530B9A01FD
S113018022F422273327241B350B2530310584F034
S11301909695879596958795809302010E94800095
S11301A080910501909106019093040180930301CD
S11301B08FE19EE40197F1F700C00000D2CF1F92B7
S11301C00F920FB60F9211242F933F934F935F9387
S11301D06F937F938F939F93AF93BF93EF93FF930B
S11301E089B169B163FB662760F982FB882780F9CE
S11301F00E948400FF91EF91BF91AF919F918F91E5
S11302007F916F915F914F913F912F910F900FBE0E
S11302100F901F9018951F920F920FB60F921124F2
S11302202F933F934F935F936F937F938F939F93FA
S1130230AF93BF93EF93FF9389B169B163FB6627D3
S113024060F982FB882780F90E948400FF91EF9176
S1130250BF91AF919F918F917F916F915F914F91DA
S11302603F912F910F900FBE0F901F9018951F92E2
S11302700F920FB60F9211242F933F934F935F93D6
S11302806F937F938F939F93AF93BF93EF93FF935A
S11302902091090130910A014CE3429FC001439F20
S11302A0900D112468E170E00E94A101872F6093F2
S11302B000017093010110920A01109209010E9439
S11302C07C01809100010E947C01FF91EF91BF911C
S11302D0AF919F918F917F916F915F914F913F91DA
S11302E02F910F900FBE0F901F9018958CE284B938
S11302F02A9A81E58CBD08952A988EBD0DB407FE17
S1130300FDCF2A9A0895569A84B5836884BD85B52D
S1130310846085BD16BC17BC0895E1E8F0E08081D7
S11303208860808384E89EE19093890080938800AC
S1130330808185608083EFE6F0E080818260808345
S1130340089597FB072E16F4009407D077FD09D083
S11303500E94B50107FC05D03EF4909581959F4F0E
S11303600895709561957F4F0895AA1BBB1B51E1B9
S113037007C0AA1FBB1FA617B70710F0A61BB70B11
S1130380881F991F5A95A9F780959095BC01CD01B6
S10903900895F894FFCF6C
S9030000FC
